:100000000C9463000C948B000C948B000C948B006C
:100010000C948B000C948B000C948B000C948B0034
:100020000C948B000C948B000C948B000C948B0024
:100030000C948B000C948B000C948B000C948B0014
:100040000C9408050C948B000C948B000C948B0082
:100050000C948B000C948B000C948B000C948B00F4
:100060000C948B000C948B000000000024002700EF
:100070002A0000000000250028002B0000000000DE
:1000800023002600290004040404040404040202DA
:100090000202020203030303030301020408102007
:1000A0004080010204081020010204081020000012
:1000B0000008000201000003040700000000000027
:1000C0000000E5082C0A11241FBECFEFD8E0DEBFE8
:1000D000CDBF24E0A0EBB2E001C01D92AA3BB20765
:1000E000E1F712E0A0E0B1E0ECE8F9E102C0059030
:1000F0000D92A03BB107D9F710E0C2E6D0E004C0F2
:100100002197FE010E94B80AC136D107C9F70E94A3
:1001100052050C94B90C0C94000096E0899FD00114
:100120001124A15DBB4F90967C936E935F9791E0F5
:1001300091969C939197E0919C04F0919D049091ED
:100140009B04992339F0309751F0811108C08091B8
:100150004B040994309719F05C968C91FACF08956E
:10016000CF92DF92EF92FF920F931F9396E0899FB9
:10017000F0011124E15DFB4F11A2278D30A1213048
:10018000310551F178F02230310509F451C02330A6
:10019000310509F452C01F910F91FF90EF90DF904D
:1001A000CF9008956623B9F361E070E00E948D005E
:1001B0002FB7F89480912B0490912C04A0912D04DA
:1001C000B0912E042FBF8093870490938804A0934E
:1001D0008904B0938A04DFCF9FB7F894C0902B04B2
:1001E000D0902C04E0902D04F0902E049FBF00913D
:1001F0008704109188042091890430918A04C01AE0
:10020000D10AE20AF30A0091990410919A0430E0AD
:1002100020E00C151D052E053F0550F462E070E04E
:100220001F910F91FF90EF90DF90CF900C948D0075
:100230006111B1CF63E070E0F3CF70E060E0F0CF28
:100240000895AF92BF92CF92DF92EF92FF920F93F9
:100250001F93CF93DF936C017B018B01040F151F5C
:10026000EB015E01AE18BF08C017D10759F06991C4
:10027000D601ED91FC910190F081E02DC601099528
:10028000892B79F7C501DF91CF911F910F91FF90D5
:10029000EF90DF90CF90BF90AF900895FC01448124
:1002A0005581608171818EE994E00C942101833045
:1002B00081F028F4813099F08230A9F008958730D8
:1002C000A9F08830C9F08430B1F4809180008F7D2E
:1002D00003C0809180008F7780938000089584B55B
:1002E0008F7784BD089584B58F7DFBCF8091B0005A
:1002F0008F778093B00008958091B0008F7DF9CF03
:10030000CF93DF93282F30E0F901E255FF4F84911E
:10031000F901E656FF4FD491F901EA57FF4FC49116
:10032000CC23A1F081110E945701EC2FF0E0EE0FD9
:10033000FF1FE458FF4FA591B491EC91ED2381E0AC
:1003400090E009F480E0DF91CF91089580E090E0A3
:10035000FACF862F0C9480011F93CF93DF93282F21
:1003600030E0F901E255FF4F8491F901E656FF4F65
:10037000D491F901EA57FF4FC491CC23A9F0162F6D
:1003800081110E945701EC2FF0E0EE0FFF1FEE5895
:10039000FF4FA591B4918FB7F894EC91111108C05B
:1003A000D095DE23DC938FBFDF91CF911F9108950D
:1003B000DE2BF8CF862F642F0C94AC01CF93DF9304
:1003C00090E0FC01E656FF4F24918A579F4FFC01B5
:1003D00084918823C9F090E0880F991FFC01E859A7
:1003E000FF4FA591B491FC01EE58FF4FC591D491F8
:1003F00061110DC09FB7F8948C91209582238C9346
:100400008881282328839FBFDF91CF910895623090
:1004100051F49FB7F8943C91822F809583238C935D
:10042000E8812E2BEFCF8FB7F894EC912E2B2C93E5
:100430008FBFEACF862F642F0C94DE013FB7F8946C
:100440008091B1029091B202A091B302B091B40236
:1004500026B5A89B05C02F3F19F00196A11DB11D1F
:100460003FBFBA2FA92F982F8827BC01CD01620F5B
:10047000711D811D911D42E0660F771F881F991F16
:100480004A95D1F708958F929F92AF92BF92CF92E3
:10049000DF92EF92FF924B015C010E941E026B0102
:1004A0007C010E941E026C197D098E099F09683E1D
:1004B000734081059105A8F321E0821A9108A108F3
:1004C000B10888EEC80E83E0D81EE11CF11C81142F
:1004D0009104A104B10429F7FF90EF90DF90CF9031
:1004E000BF90AF909F908F90089590E080E0089526
:1004F000FC0101900020E9F73197AF01481B590B2F
:10050000BC018EE994E00C942101CF93DF93EC01C0
:1005100060E08E810E94AC0161E08E810E94AC019E
:1005200060E08E810E94AC018BE891E00197F1F7C9
:10053000DF91CF910895CF92DF92EF92FF920F93C8
:100540001F93CF93DF936C017C0187E0E80EF11CD1
:10055000D0E0C0E0062F10E0B8010C2E02C0759567
:1005600067950A94E2F76170F70181917F010E941B
:10057000AC012196C430D10579F7C601DF91CF9146
:100580001F910F91FF90EF90DF90CF900C94850218
:10059000CF92DF92EF92FF920F931F93CF93DF934F
:1005A000EC01F62E642F8C810E94AC018D818F3F6F
:1005B00019F060E00E94AC010F2D10E08F8584FFE0
:1005C00025C06E0187E0C80ED11CF12CE12CB801CA
:1005D0000E2C02C0759567950A94E2F76170F601DA
:1005E00081916F010E94AC01FFEFEF1AFF0A88E0D2
:1005F000E816F10461F7CE01DF91CF911F910F91C1
:10060000FF90EF90DF90CF900C948502B80184E0CA
:10061000759567958A95E1F7CE010E949B026F2D33
:10062000CE01DF91CF911F910F91FF90EF90DF905E
:10063000CF900C949B0240E0682F8EE994E00C94DC
:10064000C80281E00E941B038BE39FE10197F1F751
:100650000895CF93DF93823029F49091AD04986090
:100660009093AD048093B1041092B20480E480931F
:10067000B30480E18093B40480E58093B50461E025
:100680008091A2040E94DE018091A3048F3F19F0A3
:1006900061E00E94DE0161E08091A4040E94DE011D
:1006A000CEE9D4E09E012E5934408091AD0484FD02
:1006B0000BC084E090E021962817390744F461E0EC
:1006C0008E810E94DE01EECF88E090E0F4CF8BE3D4
:1006D0009DE00197F1F760E08091A2040E94AC01D7
:1006E00060E08091A4040E94AC018091A3048F3F3C
:1006F00019F060E00E94AC018091AD0484FD34C02B
:1007000063E08EE994E00E949B02CBE4D6E4CE0144
:100710000197F1F763E08EE994E00E949B02219734
:10072000F1F763E08EE994E00E949B0283E592E09A
:100730000197F1F762E08EE994E00E949B028091BC
:10074000AD0480620E941B0384E08093AE048CE0C1
:100750000E941B030E94210382E08093AF0486E085
:10076000DF91CF910C941B0380620E941B038BE4EA
:1007700096E40197F1F78091AD0480620E941B031B
:1007800083E592E00197F1F78091AD0480620E94C9
:100790001B03D5CF9091B104891710F08FEF890F0B
:1007A000E82FF0E0E256FB4F848980680C941B032D
:1007B00041E00E94C80281E090E00895CF93DF936A
:1007C000EC0188819981009711F00E945A0B1982DF
:1007D00018821D821C821B821A82DF91CF9108959C
:1007E000FC0180819181009711F00C945A0B0895BF
:1007F000CF93DF93EC01A881B981EB01E881F98106
:100800001097F1F03097B1F4EC018C819D81892B28
:10081000C9F08C9190E00BC0DB0114968D919C91F6
:10082000892B81F0808190E0919581959109DF91EC
:10083000CF910895BF01CD01DF91CF910C94A90C08
:10084000309751F790E080E0F2CF0F931F93CF9352
:10085000DF93EC0188819981009759F02A813B81CF
:100860002617370730F081E0DF91CF911F910F916C
:1008700008958B016F5F7F4F0E94E30B009759F043
:10088000998388831B830A832C813D81232B59F70D
:10089000FC011082E8CF80E0E7CFEF92FF920F9348
:1008A0001F93CF93DF93EC01FB01E080F180E11413
:1008B000F10411F10481158101151105A9F08C8154
:1008C0009D81080F191FB801CE010E9425048823BD
:1008D00099F0288139818C819D81B701820F931F06
:1008E0000E94B20C1D830C83CE01DF91CF911F912A
:1008F0000F91FF90EF900895CE010E94DE03F4CF98
:10090000EF92FF920F931F93CF93DF93EC017B0144
:100910008A01BA010E94250481110BC0CE010E94F8
:10092000DE03CE01DF91CF911F910F91FF90EF90E9
:1009300008951D830C83B701888199810E94B20CB0
:10094000F0CFFB0101900020E9F73197AF01461B82
:10095000570B0C9480040F931F93CF93DF93CDB765
:10096000DEB762970FB6F894DEBF0FBECDBF8C0125
:10097000CB01F80111821082138212821582148237
:100980004AE0BE016F5F7F4F0E944C0ABE016F5F5D
:100990007F4FC8010E94A10462960FB6F894DEBF93
:1009A0000FBECDBFDF91CF911F910F910895CF93CF
:1009B000DF93EC01FB018617970749F06081718195
:1009C0006115710541F0448155810E948004CE017A
:1009D000DF91CF9108950E94DE03F9CFFC011182CF
:1009E000108213821282158214820C94D704FC01A7
:1009F000118210821382128215821482FB010190EF
:100A00000020E9F73197AF01461B570B0C94800487
:100A10001F920F920FB60F9211242F933F938F9333
:100A20009F93AF93BF9380912B0490912C04A0913E
:100A30002D04B0912E043091B00223E0230F2D3706
:100A400058F50196A11DB11D2093B00280932B048F
:100A500090932C04A0932D04B0932E048091B102A6
:100A60009091B202A091B302B091B4020196A11D7F
:100A7000B11D8093B1029093B202A093B302B093E0
:100A8000B402BF91AF919F918F913F912F910F90A1
:100A90000FBE0F901F90189526E8230F0296A11DF8
:100AA000B11DD2CFCF93DF93CDB7DEB762970FB62C
:100AB000F894DEBF0FBECDBF789484B5826084BD4C
:100AC00084B5816084BD85B5826085BD85B5816052
:100AD00085BD80916E00816080936E0010928100D0
:100AE000809181008260809381008091810081608B
:100AF000809381008091800081608093800080914C
:100B0000B10084608093B1008091B00081608093D7
:100B1000B00080917A00846080937A0080917A009E
:100B2000826080937A0080917A00816080937A005D
:100B300080917A00806880937A001092C1006AE008
:100B400070E085E294E00E94250461E08EE00E945E
:100B5000DE0161E08FE00E94DE0118E061E0812F9C
:100B60000E94DE011F5F1E30C9F782E00E94290348
:100B700080E00E94CA0384E391E00E9478026CE660
:100B800077E080E090E00E9443020E9421036091A0
:100B9000230470912404CE0101960E94AB0463E407
:100BA00071E0CE010D960E94F704BE01635F7F4F96
:100BB000CE0107960E94EE04BE016F5F7F4FCE010B
:100BC00007960E944D040E944E01CE0107960E9496
:100BD000F003CE010D960E94F003CE0101960E9413
:100BE000F00381E00E94CA03412C512C320143944E
:100BF00050E0A52E50E0B52E41E040939B048FB706
:100C0000F89440912B0450912C0460912D04709124
:100C10002E048FBF80918B0490918C04A0918D0441
:100C2000B0918E04481B590B6A0B7B0B8091970483
:100C300090919804B0E0A0E084179507A607B70745
:100C400008F00FC110E080919504181760F4E0914E
:100C50009104F0919204E10FF11D62E080810E9405
:100C6000DE011F5FF0CF312C80919604381608F01A
:100C700061C0E32CF12CE0919304F0919404EE0D0B
:100C8000FF1D61E080810E94DE01E0919304F091FC
:100C90009404EE0DFF1D60E080810E94AC01D30141
:100CA000C201032C04C0880F991FAA1FBB1F0A94FE
:100CB000D2F74C016C01C094D094212C8091950402
:100CC000281608F5022D10E0E0919104F0919204AD
:100CD000E00FF11F80810E9480010C5F1F4F000F09
:100CE000111FF801E15DFB4F892B41F48081918157
:100CF00088299929918380832394E0CF80819181F1
:100D00008C219D21F7CFE0919304F0919404EE0D96
:100D1000FF1D61E080810E94AC018091930490915D
:100D20009404E80EF91E60E0F70180810E94DE0164
:100D300033949ACF0FE214E0F801878D90A1892BAC
:100D400031F4148E4FEF5FEF568F458F11A2369618
:100D500054E0EB36F50789F7F12C80919504F816ED
:100D600008F053C0E12CCF2CD12CCC0CDD1CC601DB
:100D7000895C9B4F6C0120919604E21608F043C0F9
:100D8000F601608171810E2C02C0769567950A94F8
:100D9000E2F7F29E900111242E0D311DEFE2F4E0F6
:100DA00080E0458D568D2417350709F40CC28F5FFE
:100DB00036968A30B1F760FF24C0EFE2F4E090E0AD
:100DC00080E0448D411118C0E0918F04F0919004AF
:100DD000E20FF31F408156E0589FF001599FF00D3C
:100DE0001124E15DFB4F448F368F258F10A2178EA3
:100DF00061E00E94B00005C0019636968A309105E8
:100E000001F7E394B8CFF394A8CF80E0F80191A163
:100E10009111892F0A5F1F4FF4E00B361F07B1F7BE
:100E20009FB7F89440912B0450912C0460912D04AD
:100E300070912E049FBF40938B0450938C04609359
:100E40008D0470938E04882361F080915004882370
:100E500041F080914E0490914F04F0904B04019723
:100E600019F010929B04F12C80ED8F0D8A3008F060
:100E700098C0F9821A820091290410912A040F5F08
:100E80001F4FB80185E294E00E942504882399F061
:100E900020912504309126048091290490912A0400
:100EA000BE016F5F7F4F820F931F0E94B20C1093A1
:100EB0002A040093290441E06F2D8EE994E00E94FA
:100EC000C80244E4F412B4C00E94210380912904B2
:100ED00090912A040A9709F06EC165E274E08DE1F1
:100EE00094E00E94D7046AE471E085E294E00E94F5
:100EF000A1046DE174E0CE0101960E94EE040D8123
:100F00001E8195EBE92E92E0F92EF70184819581FF
:100F10008017910749F4BE016F5F7F4FC7010E94A0
:100F2000F803892B09F4FAC0F6E0EF0EF11C49E64C
:100F3000E41643E0F40649F7D12CCE0101960E9455
:100F4000F003DD2009F423C16DE174E0CE010196C8
:100F50000E94EE040D811E8189E6E82E83E0F82EC2
:100F6000F701848195818017910741F4BE016F5F7D
:100F70007F4FC7010E94F803892B49F0F6E0EF0E7E
:100F8000F11C4DE154E04E155F0551F7D12CCE0117
:100F900001960E94F003DD2009F4C3C08BE491E0C8
:100FA000A0C04AE2F4124BC00E9421036AE471E03F
:100FB00085E294E00E94A10480E00E94CA0384E3D9
:100FC00091E00E94780260EC71E080E090E00E9485
:100FD00043020E9421036091230470912404CE01F6
:100FE00001960E94AB0463E471E0CE010D960E946D
:100FF000F704BE01635F7F4FCE0107960E94EE04A7
:10100000BE016F5F7F4FCE0107960E944D040E9484
:101010004E01CE0107960E94F003CE010D960E946C
:10102000F003CE0101960E94F00381E00E94CA0302
:10103000A114B10409F4E0CD0E940000DDCD53E21B
:10104000F5123FCF109224041092230409E613E016
:101050001A8219821C821B821E821D821F821886A0
:10106000BE01695F7F4FCE0101960E94A104F80185
:1010700080819181009709F43FC069817A8161156F
:101080007105C1F1428153812D813E814217530781
:1010900088F10E94B20C8D819E81F8019583848332
:1010A0001E821D82CE0101960E94F0030A5F1F4F2F
:1010B000F4E00D311F0761F661E08FE00E94AC01A2
:1010C00068E270E080E090E00E94430260E08FE020
:1010D0000E94AC010E94210380E00E94CA0384E3C5
:1010E00091E00E94780260EC71E080E090E00E9464
:1010F000430247C00E945A0B89819A81F80191836B
:1011000080838B819C81938382838D819E81958353
:1011100084831A8219821C821B82C2CFDD24D3945D
:101120000CCF20912304309124042F5F3F4F309344
:1011300024042093230456E0529FC001539F900D36
:1011400011246DE174E087599C4F0E94D70461E03F
:101150008EE00E94AC0168E270E080E090E00E94C6
:1011600043020E9421038EE591E00E94780268EE1E
:1011700073E080E090E00E94430260E08EE00E9415
:10118000AC010E94210380E00E94CA0324CF0E9488
:10119000210380E00E94CA0383E691E00E94780266
:1011A0006AE471E085E294E00E94A10468EE73E0D5
:1011B00080E090E09CCF0E94210380E00E94CA035F
:1011C00081E791E0EBCF617014CECF93DF93109263
:1011D000A1041092A0048CE291E090939F0480936C
:1011E0009E048DE08093A2048FEF8093A3048CE093
:1011F0008093A4048BE08093A5048AE08093A604E6
:1012000089E08093A70488E08093A8041092A90441
:101210001092AA041092AB041092AC041092AD0488
:1012200081E00E942903109231041092350410923B
:1012300034041092360482E291E09093300480935B
:101240002F04EBE4F4E010821482138215823696A8
:1012500084E0E738F807B9F784E091E090939204CE
:101260008093910480E091E09093940480939304A0
:1012700084E0809395048093960488E091E09093B5
:10128000900480938F048AE090E090939804809378
:10129000970484EF91E090939A04809399041092BC
:1012A0009D0410929C0410928B0410928C04109256
:1012B0008D0410928E0410929B046AE471E085E222
:1012C00094E00E94F7046AE471E08DE194E00E94EA
:1012D000F7046CE771E085EB92E00E94F70467E8A1
:1012E00071E08BEB92E00E94F70462E971E081EC1F
:1012F00092E00E94F7046DE971E087EC92E00E94B1
:10130000F70468EA71E08DEC92E00E94F70463EB69
:1013100071E083ED92E00E94F7046EEB71E089EDDD
:1013200092E00E94F70469EC71E08FED92E00E9478
:10133000F70464ED71E085EE92E00E94F7046FED32
:1013400071E08BEE92E00E94F7046AEE71E081EFAB
:1013500092E00E94F70465EF71E087EF92E00E944F
:10136000F70460E072E08DEF92E00E94F7046BE01A
:1013700072E083E093E00E94F70466E172E089E0A6
:1013800093E00E94F70461E272E08FE093E00E9434
:10139000F7046CE272E085E193E00E94F70467E3F2
:1013A00072E08BE193E00E94F70462E472E081E274
:1013B00093E00E94F7046DE472E087E293E00E94FC
:1013C000F70468E572E08DE293E00E94F70463E6BB
:1013D00072E083E393E00E94F7046EE672E089E333
:1013E00093E00E94F70469E772E08FE393E00E94C4
:1013F000F70464E872E085E493E00E94F7046FE884
:1014000072E08BE493E00E94F7046AE972E081E500
:1014100093E00E94F70465EA72E087E593E00E949A
:10142000F7046AE471E08DE593E00E94F7046AE452
:1014300071E083E693E00E94F704C9E6D3E06AE432
:1014400071E0CE010E94F704269684E0CD31D807E2
:10145000B1F7DF91CF910895CF93DF93CDE1D4E041
:101460002697CE010E94F00383E0C936D807C1F762
:10147000C9E6D3E02697CE010E94F00382E0C53B87
:10148000D807C1F78DE194E00E94F00385E294E073
:10149000DF91CF910C94F003BB274A3031F49923AC
:1014A00022F4BDE2909581959F4F0C94580ABB277A
:1014B000FB015527AA27880F991FAA1FA41710F010
:1014C000A41B83955051B9F7A05DAA3308F0A95D1C
:1014D000A193009779F7B111B1931192CB010C94BC
:1014E000710ADC01FC01672F71917723E1F73297D4
:1014F00004C07C916D9370836291AE17BF07C8F3EF
:1015000008952F923F924F925F926F927F928F92A7
:101510009F92AF92BF92CF92DF92EF92FF920F9382
:101520001F93CF93DF93CDB7DEB7CA1BDB0B0FB68C
:10153000F894DEBF0FBECDBF09942A883988488849
:101540005F846E847D848C849B84AA84B984C884DF
:10155000DF80EE80FD800C811B81AA81B981CE0FD6
:10156000D11D0FB6F894DEBF0FBECDBFED010895BB
:10157000EE0FFF1F0590F491E02D09940F931F9338
:10158000CF93DF938230910510F482E090E0E091F8
:10159000B804F091B90430E020E0B0E0A0E030976A
:1015A00099F42115310509F44AC0281B390B243060
:1015B0003105D8F58A819B816115710589F1FB019F
:1015C00093838283FE0111C0408151810281138186
:1015D00048175907E0F04817590799F4109761F038
:1015E00012960C93129713961C933296CF01DF91AB
:1015F000CF911F910F9108950093B8041093B904EF
:10160000F4CF2115310551F04217530738F0A901E5
:10161000DB019A01BD01DF01F801C1CFEF01F9CF74
:101620009093B9048093B804CDCFFE01E20FF31F6D
:10163000819391932250310939832883D7CF209108
:10164000B6043091B704232B41F420911A01309154
:101650001B013093B7042093B604209118013091F8
:1016600019012115310541F42DB73EB740911C01F8
:1016700050911D01241B350BE091B604F091B70485
:10168000E217F307A0F42E1B3F0B2817390778F059
:10169000AC014E5F5F4F2417350748F04E0F5F1FB8
:1016A0005093B7044093B604819391939FCFF0E099
:1016B000E0E09CCFCF93DF930097E9F0FC013297F5
:1016C00013821282A091B804B091B904ED0130E008
:1016D00020E01097A1F420813181820F931F209187
:1016E000B6043091B7042817390709F061C0F093A8
:1016F000B704E093B604DF91CF910895EA01CE17C5
:10170000DF07E8F54A815B819E0141155105B1F77C
:10171000E901FB83EA8349915991C40FD51FEC1766
:10172000FD0761F4808191810296840F951FE90184
:1017300099838883828193819B838A83F0E0E0E0B0
:1017400012968D919C9113970097B9F52D913C912C
:101750001197CD010296820F931F2091B60430910C
:10176000B7042817390739F6309751F51092B904A4
:101770001092B804B093B704A093B604BCCFD3833F
:10178000C28340815181840F951FC817D90761F426
:101790004E5F5F4F88819981480F591F5183408365
:1017A0008A819B81938382832115310509F0B0CF13
:1017B000F093B904E093B8049ECFFD01DC01C0CFE3
:1017C00013821282D7CFB0E0A0E0E9EEFBE00C94E8
:1017D000830A8C01009751F4CB010E94BE0A8C0150
:1017E000C801CDB7DEB7E0E10C949F0AFC01E60F1B
:1017F000F71F9C0122503109E217F30708F49DC03E
:10180000D901CD91DC911197C617D70798F0C53053
:10181000D10530F3CE0104978617970708F3C61B4E
:10182000D70B2297C193D1936D937C93CF010E94E4
:101830005A0BD6CF5B01AC1ABD0A4C018C0E9D1E13
:10184000A091B804B091B904512C412CF12CE12C99
:10185000109731F58091B6049091B70488159905D9
:1018600009F05CC04616570608F058C08091180170
:1018700090911901009741F48DB79EB740911C01DA
:1018800050911D01841B950BE817F90708F055C00E
:10189000F093B704E093B604F90171836083A0CF9D
:1018A0008D919C91119712966C90129713967C9043
:1018B0001397A815B90559F56C0142E0C40ED11C67
:1018C000CA14DB0420F1AC014A195B09DA01129653
:1018D000159780F06282738251834083D9016D93A2
:1018E0007C93E114F10471F0D7011396FC93EE930D
:1018F000129776CF22968C0F9D1FF90191838083DA
:10190000F301EFCFF093B904E093B80469CF481620
:10191000590608F42C017D01D3019ACFCB010E9416
:10192000BE0A7C01009749F0AE01B8010E94A00CEC
:10193000C8010E945A0B870153CF10E000E050CF3E
:10194000FB01DC0102C001900D9241505040D8F7DC
:101950000895FB01DC018D91019080190110D9F3EC
:10196000990B0895FB01DC0101900D920020E1F735
:10197000089510E0C2E6D0E004C0FE010E94B80A5B
:0C1980002196C336D107C9F7F894FFCFB9
:10198C000302010007060504373839413435364265
:10199C00313233432A3023440000BA048000000063
:1019AC0000001A02DA01A90100000000D80321018D
:1019BC00750220014543453333342050524F4A457C
:1019CC00435400434F554E543A2000416C726561AC
:1019DC00647920456E746572656421212100444F41
:1019EC004E45004E4F5420494E204752502D342125
:1019FC0000494E434F525245435421003230313747
:101A0C0033363430353300323031373336343130CD
:101A1C0036003230313733363431313000323031F8
:101A2C0037333634303330003230313733363430AC
:101A3C0033340032303137333634303139003230D0
:101A4C003137333634303136003230313733363487
:101A5C0031303200323031373336343039390032AC
:101A6C003031343336343332380032303137333668
:101A7C003430363800323031373336343038310088
:101A8C00323031373336343036350032303137334B
:101A9C003634303537003230313733363430383233
:101AAC000032303137323334303934003230313760
:101ABC003233343030370032303138323334303125
:101ACC003800323031373233343032310032303149
:101ADC0037323334303236003230313732333430FF
:101AEC003736003230313732333430333400323021
:101AFC0031373233343037330032303137323334DC
:101B0C0030393800323031373233343036390032F4
:101B1C0030313732333430313100323031373233C7
:101B2C0034303336003230313732333430373900D9
:00000001FF
