:020000040000FA
:100000000C9461000C9473000C9473000C947300B6
:100010000C9473000C9473000C9473000C94730094
:100020000C9473000C9473000C9473000C94730084
:100030000C9473000C9473000C9473000C94730074
:100040000C9422010C9473000C9473000C947300B4
:100050000C9473000C9473000C9473000C94730054
:100060000C9473000C94730000000000240027001F
:100070002A0000000000250028002B0000000000DE
:1000800023002600290004040404040404040202DA
:100090000202020203030303030301020408102007
:1000A0004080010204081020010204081020000012
:1000B0000008000201000003040700000000000027
:1000C000000011241FBECFEFD8E0DEBFCDBF21E07E
:1000D000A0E0B1E001C01D92A930B207E1F70E9493
:1000E0006C010C94C2030C940000833081F028F45E
:1000F000813099F08230A9F008958730A9F08830D6
:10010000C9F08430B1F4809180008F7D03C080916C
:1001100080008F7780938000089584B58F7784BDA9
:10012000089584B58F7DFBCF8091B0008F77809349
:10013000B00008958091B0008F7DF9CF1F93CF93C9
:10014000DF93282F30E0F901E255FF4F8491F90148
:10015000E656FF4FD491F901EA57FF4FC491CC23E3
:10016000A9F0162F81110E947500EC2FF0E0EE0F20
:10017000FF1FEE58FF4FA591B4918FB7F894EC9103
:10018000111108C0D095DE23DC938FBFDF91CF9192
:100190001F910895DE2BF8CFCF93DF9390E0FC0101
:1001A000E656FF4F24918A579F4FFC018491882384
:1001B000D1F090E0880F991FFC01E859FF4FA591FD
:1001C000B491FC01EE58FF4FC591D49161110EC05E
:1001D0009FB7F8948C91E22FE0958E238C93288121
:1001E000E223E8839FBFDF91CF9108958FB7F89402
:1001F000EC91E22BEC938FBFF6CF3FB7F894809150
:10020000050190910601A0910701B091080126B562
:10021000A89B05C02F3F19F00196A11DB11D3FBF3E
:10022000BA2FA92F982F8827BC01CD01620F711D0D
:10023000811D911D42E0660F771F881F991F4A9507
:10024000D1F708951F920F920FB60F9211242F939A
:100250003F938F939F93AF93BF93809101019091B0
:100260000201A0910301B09104013091000123E04B
:10027000230F2D3758F50196A11DB11D20930001C4
:100280008093010190930201A0930301B0930401B4
:100290008091050190910601A0910701B09108019C
:1002A0000196A11DB11D8093050190930601A093B5
:1002B0000701B0930801BF91AF919F918F913F913A
:1002C0002F910F900FBE0F901F90189526E8230FC7
:1002D0000296A11DB11DD2CF789484B5826084BDF1
:1002E00084B5816084BD85B5826085BD85B581603A
:1002F00085BD80916E00816080936E0010928100B8
:100300008091810082608093810080918100816072
:100310008093810080918000816080938000809133
:10032000B10084608093B1008091B00081608093BF
:10033000B00080917A00846080937A0080917A0086
:10034000826080937A0080917A00816080937A0045
:1003500080917A00806880937A001092C10061E0F9
:100360008BE00E94CC0061E08AE00E94CC0060E05B
:1003700080E00E94CC002EEA222E20E0322E3AE9C4
:10038000832E30E0932EC6E8D0E047EBA42E40E069
:10039000B42E00E010E0F1018491F401F490FE012C
:1003A000E490EE2009F46FC081110E947500EE2DDB
:1003B000F0E0EE0FFF1FE458FF4FA591B4918C9130
:1003C000F82209F460C061E08BE00E949E0060E0CA
:1003D0008AE00E949E00F0E4F0937C0080917A0015
:1003E000806480937A0080917A0086FDFCCF8091B2
:1003F000780060917900762F682F072E000C880B0B
:10040000990B0E94C90220E030E040E85EE30E94C0
:100410002D030E9491022B017B0161E089E00E9483
:10042000CC0041145104A9F560E089E00E949E00CF
:100430000E94FD002B013C0184E1C82ED12CE12C4F
:10044000F12C0E94FD006419750986099709683E20
:10045000734081059105A8F321E0C21AD108E10893
:10046000F10888EE480E83E0581E611C711CC1140F
:10047000D104E104F10429F70115110509F48BCF2A
:100480000E94000088CF60E08BE00E949E0061E047
:100490009FCF2FEF4216510411F461E0C6CFF50152
:1004A0008491833021F148F48130B9F08230D1F069
:1004B000F0E8EF16F1048CF7B7CF873011F18830F0
:1004C00041F18430A9F780918000806280938000A0
:1004D00050928B0040928A00ABCF84B5806884BD77
:1004E00047BCA6CF84B5806284BD48BCA1CF8091B3
:1004F000800080688093800050928900409288003C
:1005000097CF8091B00080688093B0004092B30094
:100510008FCF8091B00080628093B0004092B40091
:1005200087CF0E9498026894B1110C942703089514
:100530000E940C0388F09F5798F0B92F9927B75164
:10054000B0F0E1F0660F771F881F991F1AF0BA9577
:10055000C9F714C0B13091F00E942603B1E00895AC
:100560000C942603672F782F8827B85F39F0B93F9E
:10057000CCF3869577956795B395D9F73EF490952A
:100580008095709561957F4F8F4F9F4F0895E894A8
:1005900009C097FB3EF490958095709561957F4FCB
:1005A0008F4F9F4F9923A9F0F92F96E9BB27939579
:1005B000F695879577956795B795F111F8CFFAF489
:1005C000BB0F11F460FF1BC06F5F7F4F8F4F9F4FBA
:1005D00016C0882311F096E911C0772321F09EE818
:1005E000872F762F05C0662371F096E8862F70E07E
:1005F00060E02AF09A95660F771F881FDAF7880F58
:100600009695879597F9089557FD9058440F551F73
:1006100059F05F3F71F04795880F97FB991F61F084
:100620009F3F79F087950895121613061406551FFB
:10063000F2CF4695F1DF08C0161617061806991F67
:10064000F1CF86957105610508940895E894BB275C
:1006500066277727CB0197F908950E9440030C94F1
:10066000B1030E94A30338F00E94AA0320F095234F
:1006700011F00C949A030C94A00311240C942703FA
:100680000E94040370F3959FC1F3950F50E0551F2E
:10069000629FF001729FBB27F00DB11D639FAA27D7
:1006A000F00DB11DAA1F649F6627B00DA11D661F26
:1006B000829F2227B00DA11D621F739FB00DA11D47
:1006C000621F839FA00D611D221F749F3327A00D01
:1006D000611D231F849F600D211D822F762F6A2F9D
:1006E00011249F5750409AF0F1F088234AF0EE0F02
:1006F000FF1FBB1F661F771F881F91505040A9F72F
:100700009E3F510580F00C949A030C9427035F3FA1
:10071000E4F3983ED4F3869577956795B795F7956A
:10072000E7959F5FC1F7FE2B880F911D96958795E2
:1007300097F9089597F99F6780E870E060E0089561
:100740009FEF80EC089500240A94161617061806E9
:100750000906089500240A941216130614060506C5
:100760000895092E0394000C11F4882352F0BB0F56
:1007700040F4BF2B11F460FF04C06F5F7F4F8F4FB9
:080780009F4F0895F894FFCF8C
:107E0000112484B714BE81FFF0D085E080938100F7
:107E100082E08093C00088E18093C10086E0809377
:107E2000C20080E18093C4008EE0C9D0259A86E02C
:107E300020E33CEF91E0309385002093840096BBD3
:107E4000B09BFECF1D9AA8958150A9F7CC24DD24C4
:107E500088248394B5E0AB2EA1E19A2EF3E0BF2EE7
:107E6000A2D0813461F49FD0082FAFD0023811F036
:107E7000013811F484E001C083E08DD089C08234E0
:107E800011F484E103C0853419F485E0A6D080C0E4
:107E9000853579F488D0E82EFF2485D0082F10E0AE
:107EA000102F00270E291F29000F111F8ED06801E7
:107EB0006FC0863521F484E090D080E0DECF843638
:107EC00009F040C070D06FD0082F6DD080E0C81688
:107ED00080E7D80618F4F601B7BEE895C0E0D1E017
:107EE00062D089930C17E1F7F0E0CF16F0E7DF06D8
:107EF00018F0F601B7BEE89568D007B600FCFDCFD4
:107F0000A601A0E0B1E02C9130E011968C91119780
:107F100090E0982F8827822B932B1296FA010C0160
:107F200087BEE89511244E5F5F4FF1E0A038BF0790
:107F300051F7F601A7BEE89507B600FCFDCF97BE46
:107F4000E89526C08437B1F42ED02DD0F82E2BD052
:107F50003CD0F601EF2C8F010F5F1F4F84911BD097
:107F6000EA94F801C1F70894C11CD11CFA94CF0C13
:107F7000D11C0EC0853739F428D08EE10CD085E9AC
:107F80000AD08FE07ACF813511F488E018D01DD067
:107F900080E101D065CF982F8091C00085FFFCCF94
:107FA0009093C60008958091C00087FFFCCF809118
:107FB000C00084FD01C0A8958091C6000895E0E648
:107FC000F0E098E1908380830895EDDF803219F02E
:107FD00088E0F5DFFFCF84E1DECF1F93182FE3DFCA
:107FE0001150E9F7F2DF1F91089580E0E8DFEE27F6
:047FF000FF270994CA
:027FFE00040479
:00000001FF
