:100000000C9462000C948A000C948A000C948A0070
:100010000C948A000C948A000C948A000C948A0038
:100020000C948A000C948A000C948A000C948A0028
:100030000C948A000C948A000C948A000C948A0018
:100040000C94D4030C948A000C948A000C948A00BB
:100050000C948A000C948A000C948A000C948A00F8
:100060000C948A000C948A000000000024002700F1
:100070002A0000000000250028002B0000000000DE
:1000800023002600290004040404040404040202DA
:100090000202020203030303030301020408102007
:1000A0004080010204081020010204081020000012
:1000B0000008000201000003040700000000000027
:1000C00000000F0611241FBECFEFD8E0DEBFCDBF6A
:1000D00011E0A0E0B1E0ECE1FDE002C005900D927E
:1000E000A234B107D9F721E0A2E4B1E001C01D922A
:1000F000A23DB207E1F710E0C2E6D0E004C02197CC
:10010000FE010E948606C136D107C9F70E941E046F
:100110000C948C060C94000096E0899FD001112469
:10012000A55BBE4F90967C936E935F9791E09196FE
:100130009C939197E091B801F091B9019091B7012A
:10014000992339F0309751F0811108C080916701EF
:100150000994309719F05C968C91FACF0895CF925C
:10016000DF92EF92FF920F931F9396E0899FF00129
:100170001124E55BFE4F11A2278D30A121303105FE
:1001800051F178F02230310509F451C023303105A6
:1001900009F452C01F910F91FF90EF90DF90CF9024
:1001A00008956623B9F361E070E00E948C002FB7D8
:1001B000F8948091470190914801A0914901B09134
:1001C0004A012FBF8093A3019093A401A093A5019E
:1001D000B093A601DFCF9FB7F894C0904701D090AD
:1001E0004801E0904901F0904A019FBF0091A301AE
:1001F0001091A4012091A5013091A601C01AD10A45
:10020000E20AF30A0091B5011091B60130E020E056
:100210000C151D052E053F0550F462E070E01F919E
:100220000F91FF90EF90DF90CF900C948C006111B4
:10023000B1CF63E070E0F3CF70E060E0F0CFAF9259
:10024000BF92CF92DF92EF92FF920F931F93CF93C3
:10025000DF936C017B018B01040F151FEB015E0125
:10026000AE18BF08C017D10759F06991D601ED91BA
:10027000FC910190F081E02DC6010995892B79F759
:10028000C501DF91CF911F910F91FF90EF90DF900B
:10029000CF90BF90AF900895833081F028F48130E3
:1002A00099F08230A9F008958730A9F08830C9F01C
:1002B0008430B1F4809180008F7D03C080918000F4
:1002C0008F7780938000089584B58F7784BD0895DB
:1002D00084B58F7DFBCF8091B0008F778093B00085
:1002E00008958091B0008F7DF9CFCF93DF93282FB1
:1002F00030E0F901E255FF4F8491F901E656FF4FD6
:10030000D491F901EA57FF4FC491CC23A1F0811198
:100310000E944C01EC2FF0E0EE0FFF1FE458FF4F5E
:10032000A591B491EC91ED2381E090E009F480E097
:10033000DF91CF91089580E090E0FACF862F0C9462
:1003400075011F93CF93DF93282F30E0F901E25519
:10035000FF4F8491F901E656FF4FD491F901EA5716
:10036000FF4FC491CC23A9F0162F81110E944C019C
:10037000EC2FF0E0EE0FFF1FEE58FF4FA591B49168
:100380008FB7F894EC91111108C0D095DE23DC935F
:100390008FBFDF91CF911F910895DE2BF8CF862F6D
:1003A000642F0C94A101CF93DF9390E0FC01E656FB
:1003B000FF4F24918A579F4FFC0184918823C9F0F5
:1003C00090E0880F991FFC01E859FF4FA591B49167
:1003D000FC01EE58FF4FC591D49161110DC09FB73C
:1003E000F8948C91209582238C93888128232883EC
:1003F0009FBFDF91CF910895623051F49FB7F89479
:100400003C91822F809583238C93E8812E2BEFCF14
:100410008FB7F894EC912E2B2C938FBFEACF862FB9
:10042000642F0C94D3013FB7F894809143019091CD
:100430004401A0914501B091460126B5A89B05C095
:100440002F3F19F00196A11DB11D3FBFBA2FA92F53
:10045000982F8827BC01CD01620F711D811D911D50
:1004600042E0660F771F881F991F4A95D1F70895BC
:100470008F929F92AF92BF92CF92DF92EF92FF92B4
:100480004B015C010E9413026B017C010E9413026C
:100490006C197D098E099F09683E7340810591059D
:1004A000A8F321E0821A9108A108B10888EEC80ECD
:1004B00083E0D81EE11CF11C81149104A104B10455
:1004C00029F7FF90EF90DF90CF90BF90AF909F9073
:1004D0008F900895089590E080E00895FC010190C8
:1004E0000020E9F73197AF01481B590BBC018AEB9B
:1004F00091E00C941F01CF93DF93EC0160E08E81BB
:100500000E94A10161E08E810E94A10160E08E81C4
:100510000E94A1018BE891E00197F1F7DF91CF9163
:100520000895CF92DF92EF92FF920F931F93CF9394
:10053000DF936C017C0187E0E80EF11CD0E0C0E0A5
:10054000062F10E0B8010C2E02C0759567950A942D
:10055000E2F76170F70181917F010E94A10121966C
:10056000C430D10579F7C601DF91CF911F910F916A
:10057000FF90EF90DF90CF900C947B02CF92DF92B0
:10058000EF92FF920F931F93CF93DF93EC01F62E20
:10059000642F8C810E94A1018D818F3F19F060E052
:1005A0000E94A1010F2D10E08F8584FF25C06E01F0
:1005B00087E0C80ED11CF12CE12CB8010E2C02C032
:1005C000759567950A94E2F76170F60181916F0164
:1005D0000E94A101FFEFEF1AFF0A88E0E816F1047C
:1005E00061F7CE01DF91CF911F910F91FF90EF90B6
:1005F000DF90CF900C947B02B80184E075956795ED
:100600008A95E1F7CE010E9491026F2DCE01DF9114
:10061000CF911F910F91FF90EF90DF90CF900C94AE
:10062000910240E0682F8AEB91E00C94BE0281E0D9
:100630000E9411038BE39FE10197F1F70895CF9397
:10064000DF93823029F49091C90198609093C90199
:100650008093CD011092CE0180E48093CF0180E1A0
:100660008093D00180E58093D10161E08091BE014B
:100670000E94D3018091BF018F3F19F061E00E9479
:10068000D30161E08091C0010E94D301CAEBD1E0A7
:100690009E012A5B31408091C90184FD0BC084E03A
:1006A00090E021962817390744F461E08E810E947A
:1006B000D301EECF88E090E0F4CF8BE39DE001978B
:1006C000F1F760E08091BE010E94A10160E080919D
:1006D000C0010E94A1018091BF018F3F19F060E02D
:1006E0000E94A1018091C90184FD34C063E08AEBBE
:1006F00091E00E949102CBE4D6E4CE010197F1F79C
:1007000063E08AEB91E00E9491022197F1F763E0A8
:100710008AEB91E00E94910283E592E00197F1F764
:1007200062E08AEB91E00E9491028091C9018062AF
:100730000E94110384E08093CA018CE00E9411039F
:100740000E94170382E08093CB0186E0DF91CF9176
:100750000C94110380620E9411038BE496E40197CC
:10076000F1F78091C90180620E94110383E592E054
:100770000197F1F78091C90180620E941103D5CFE2
:100780009091CD01891710F08FEF890FE82FF0E0DD
:10079000E654FE4F848980680C94110341E00E9466
:1007A000BE0281E090E008951F920F920FB60F9263
:1007B00011242F933F938F939F93AF93BF93809177
:1007C000470190914801A0914901B0914A013091AF
:1007D000420123E0230F2D3758F50196A11DB11DCD
:1007E000209342018093470190934801A0934901CF
:1007F000B0934A018091430190914401A091450139
:10080000B09146010196A11DB11D809343019093C3
:100810004401A0934501B0934601BF91AF919F91D0
:100820008F913F912F910F900FBE0F901F901895B1
:1008300026E8230F0296A11DB11DD2CF789484B56E
:10084000826084BD84B5816084BD85B5826085BDCC
:1008500085B5816085BD80916E00816080936E005A
:10086000109281008091810082608093810080914C
:1008700081008160809381008091800081608093FD
:1008800080008091B10084608093B1008091B000BD
:1008900081608093B00080917A00846080937A00B8
:1008A00080917A00826080937A0080917A008160E2
:1008B00080937A0080917A00806880937A00109209
:1008C000C10061E08EE00E94D30161E08FE00E94F0
:1008D000D301C8E061E08C2F0E94D301CF5FCE30FE
:1008E000C9F782E00E941F0380E00E94C0038EE2ED
:1008F00091E00E946E0281E00E94C003412C512CC5
:100900003201439488248A94982C50E0C52E50E0FC
:10091000D52E51E05093B7018FB7F894409147011D
:10092000509148016091490170914A018FBF8091B7
:10093000A7019091A801A091A901B091AA01481B1B
:10094000590B6A0B7B0B8091B3019091B401B0E01D
:10095000A0E084179507A607B70708F014C1C0E008
:100960008091B101C81760F4E091AD01F091AE0142
:10097000EC0FF11D62E080810E94D301CF5FF0CFC8
:10098000312C8091B201381608F05FC0032D10E0C1
:10099000E091AF01F091B001E00FF11F61E08081C3
:1009A0000E94D301E091AF01F091B001E00FF11F7F
:1009B00060E080810E94A101D301C201032C04C028
:1009C000880F991FAA1FBB1F0A94D2F75C017C01F4
:1009D000E094F094212C8091B1012816F8F4C22DF6
:1009E000D0E0E091AD01F091AE01EC0FFD1F8081F0
:1009F0000E9475012496CC0FDD1FC55BDE4F892B4D
:100A000041F4888199818A299B2999838883239439
:100A1000E2CF888199818E219F21F7CFE091AF01AC
:100A2000F091B001E00FF11F61E080810E94A1010F
:100A30008091AF019091B001080F191F60E0F8019B
:100A400080810E94D30133949CCF0BE411E0E80134
:100A50008F8D98A1892B21F41C8E9E8E8D8E19A2CC
:100A6000269687E891E08C179D0791F7B12C80912D
:100A7000B101B81608F053C0A12CEB2CF12CEE0CF0
:100A8000FF1CF701ED5AFE4F7F012091B201A21623
:100A900008F043C0F701608171810A2C02C076958D
:100AA00067950A94E2F7B29E900111242A0D311D38
:100AB000EBE4F1E080E0458D568D2417350709F40D
:100AC000ACC08F5F36968A30B1F760FF24C0EBE48C
:100AD000F1E090E080E0448D411118C0E091AB015D
:100AE000F091AC01E20FF31F408156E0589FF001F6
:100AF000599FF00D1124E55BFE4F448F368F258FF3
:100B000010A2178E61E00E94AF0005C001963696D4
:100B10008A30910501F7A394B8CFB394A8CF80E0B1
:100B2000F80191A19111892F0A5F1F4FC017D107BA
:100B3000B9F79FB7F89440914701509148016091EF
:100B4000490170914A019FBF4093A7015093A801AA
:100B50006093A9017093AA018823A9F080916C0188
:100B6000882389F080916A0190916B01019759F473
:100B7000C0916701C1110AC0C114D10409F4C9CEE2
:100B80000E940000C6CE1092B701F6CF41E06C2F54
:100B90008AEB91E00E94BE02C33681F40E941703E3
:100BA00082E00E941F0380E00E94C0038EE291E079
:100BB0000E946E0281E00E94C003DECFCD33E9F4D3
:100BC00061E08EE00E94A10168E270E080E090E0C8
:100BD0000E9438020E9417038DE391E00E946E028A
:100BE00068EE73E080E090E00E94380260E08EE002
:100BF0000E94A1010E941703D6CFCB3209F0BCCFCF
:100C000061E08FE00E94A10168E270E080E090E086
:100C10000E94380260E08FE0EBCF617074CF1092D9
:100C2000BD011092BC0186E291E09093BB018093DC
:100C3000BA018DE08093BE018FEF8093BF018CE0FD
:100C40008093C0018BE08093C1018AE08093C20150
:100C500089E08093C30188E08093C4011092C501AC
:100C60001092C6011092C7011092C8011092C901DA
:100C700081E00E941F0310924D01109251011092C9
:100C80005001109252018CE191E090934C018093BD
:100C90004B01E7E6F1E0108214821382158236964A
:100CA00081E0E33AF807B9F784E091E09093AE0170
:100CB0008093AD0180E091E09093B0018093AF010B
:100CC00084E08093B1018093B20188E091E0909339
:100CD000AC018093AB018AE090E09093B4018093E3
:100CE000B30184EF91E09093B6018093B501109227
:100CF000B9011092B8011092A7011092A8011092A8
:100D0000A9011092AA011092B7010895EE0FFF1FDA
:0C0D10000590F491E02D0994F894FFCFB9
:100D1C0003020100070605043738392F3435362A0B
:100D2C003132332D63303D2B000000000F02CF0118
:100D3C009E0100000000CE031F016B026A024543B6
:100D4C00453333342050524F4A45435400444F4EA0
:020D5C00450050
:00000001FF
